:100000000C9462000C948A000C948A000C948A0070
:100010000C948A000C948A000C948A000C948A0038
:100020000C948A000C948A000C948A000C948A0028
:100030000C948A000C948A000C948A000C948A0018
:100040000C9479030C948A000C94E9030C94C30378
:100050000C948A000C948A000C948A000C948A00F8
:100060000C948A000C948A000000000023002600F3
:10007000290000000000240027002A0000000000E2
:10008000250028002B0004040404040404040202D4
:100090000202020203030303030301020408102007
:1000A0004080010204081020010204081020000012
:1000B0000008000201000003040700000000000027
:1000C0000000F10411241FBECFEFD8E0DEBFCDBF8A
:1000D00011E0A0E0B1E0EAE9FAE002C005900D927B
:1000E000A234B107D9F721E0A2E4B1E001C01D922A
:1000F000A83EB207E1F710E0C2E6D0E004C02197C5
:10010000FE010E944005C136D107C9F70E941B04B9
:100110000C944B050C940000833081F028F481305E
:1001200099F08230A1F008958730A9F08830B9F0B5
:100130008430D1F4809180008F7D03C08091800055
:100140008F7780938000089584B58F7702C084B53F
:100150008F7D84BD08958091B0008F7703C080911A
:10016000B0008F7D8093B0000895CF93DF93282F48
:1001700030E0F901E255FF4F8491F901E656FF4F57
:10018000D491F901EA57FF4FC491CC2391F081112A
:100190000E948C00EC2FF0E0EE0FFF1FE458FF4FA1
:1001A000A591B4919FB7F8948C91D095D823DC9306
:1001B0009FBFDF91CF910895CF93DF9390E0FC0133
:1001C000E656FF4F2491FC01EA57FF4F84918823A4
:1001D00061F190E0880F991FFC01EE58FF4FC59127
:1001E000D491FC01E458FF4FA591B491611109C06D
:1001F0009FB7F8948881209582238883EC912E23E1
:100200000BC0623061F49FB7F8948881322F30952B
:1002100083238883EC912E2B2C939FBF06C08FB72E
:10022000F894E8812E2B28838FBFDF91CF9108951A
:100230003FB7F8948091470190914801A0914901FE
:10024000B0914A0126B5A89B05C02F3F19F0019631
:10025000A11DB11D3FBFBA2FA92F982F8827820F4C
:10026000911DA11DB11DBC01CD0142E0660F771F9C
:10027000881F991F4A95D1F708958F929F92AF9248
:10028000BF92CF92DF92EF92FF926B017C010E94AE
:1002900018014B015C01C114D104E104F104F1F037
:1002A0000E941801DC01CB0188199909AA09BB0930
:1002B000883E9340A105B10570F321E0C21AD10830
:1002C000E108F10888EE880E83E0981EA11CB11C9D
:1002D000C114D104E104F10419F7DDCFFF90EF90D0
:1002E000DF90CF90BF90AF909F908F900895CF9266
:1002F000DF92EF92FF920F931F93CF93DF936C01E6
:100300007A018B01C0E0D0E0CE15DF0581F0D80185
:100310006D918D01D601ED91FC910190F081E02D60
:10032000C6010995892B11F02196EECF7E01C701F8
:10033000DF91CF911F910F91FF90EF90DF90CF90C1
:100340000895089580E090E00895FC01538D448D58
:10035000252F30E0842F90E0821B930B541710F070
:10036000CF96089501970895FC01918D828D98177D
:1003700061F0828DDF01A80FB11D5D968C91928D89
:100380009F5F9F73928F90E008958FEF9FEF089586
:10039000FC01918D828D981731F0828DE80FF11D4F
:1003A000858D90E008958FEF9FEF0895FC01918D6A
:1003B000228D892F90E0805C9F4F821B91098F7363
:1003C000992708958BE491E00E94D60121E0892BC2
:1003D00009F420E0822F0895FC01848DDF01A80F2D
:1003E000B11DA35ABF4F2C91848D90E001968F735D
:1003F0009927848FA689B7892C93A089B1898C917C
:10040000837080648C93938D848D981306C00288CA
:10041000F389E02D80818F7D80830895EF92FF9294
:100420000F931F93CF93DF93EC0181E0888F9B8D17
:100430008C8D981305C0E889F989808185FD26C0D7
:10044000F62E0B8D10E00F5F1F4F0F731127E02E5C
:100450008C8DE8120CC00FB607FCFACFE889F98939
:10046000808185FFF5CFCE010E94EC01F1CF8B8D0D
:10047000FE01E80FF11DE35AFF4FF0829FB7F89499
:100480000B8FEA89FB89808180620AC09FB7F8944C
:10049000EE89FF896083E889F989808183708064AF
:1004A00080839FBF81E090E0DF91CF911F910F91FA
:1004B000FF90EF900895CF93DF93EC01888D882310
:1004C000C9F0EA89FB89808185FD05C0A889B989C1
:1004D0008C9186FD0FC00FB607FCF5CF808185FF9C
:1004E000F2CFA889B9898C9185FFEDCFCE010E940A
:1004F000EC01E7CFDF91CF91089580E090E0892B68
:1005000029F00E94E20181110C9400000895CF931C
:10051000C09102018C2F0E94B50061E08C2F0E94D7
:10052000DC00609100017091010180E090E0CF91CA
:100530000C943D0160E0809102010E94DC0060911A
:1005400000017091010180E090E00C943D01CF9397
:10055000C09104018C2F0E94B50061E08C2F0E9495
:10056000DC00609100017091010180E090E0CF918A
:100570000C943D0160E0809104010E94DC006091D8
:1005800000017091010180E090E00C943D010E9417
:1005900087020E94A7020E949A020C94BA02CF938B
:1005A000DF93D82FC8E0D7FF03C00E94BA0202C071
:1005B0000E94A7020E949A020E948702DD0FC1508A
:1005C00091F7DF91CF910C94BA02009769F0FC018A
:1005D00001900020E9F73197AF01481B590BBC018E
:1005E0008BE491E00C94770180E090E008958F9285
:1005F0009F92AF92BF920F931F93CF93DF93CDB78C
:10060000DEB7A1970FB6F894DEBF0FBECDBF19A21B
:10061000423008F44AE08E010F5D1F4F842E912C6A
:10062000A12CB12CA50194010E941E05E62FB90151
:10063000CA0101501109EA3014F4E05D01C0E95C1F
:10064000D801EC93232B242B252B61F7C8010E94A2
:10065000E502A1960FB6F894DEBF0FBECDBFDF91C5
:10066000CF911F910F91BF90AF909F908F90089561
:10067000CF93DF930E949A022091040130910501EB
:100680003327F901E255FF4F8491F901E656FF4FF8
:10069000D491F901EA57FF4FC491CC23D1F08111D5
:1006A0000E948C00EC2FF0E0EE0FFF1FE859FF4F87
:1006B000A591B491EC91ED2361F088E191E00E9465
:1006C000E5028CE291E00E94E5020E94870281E04F
:1006D0000BC08FE291E00E94E5028CE291E00E9463
:1006E000E5020E94870280E0DF91CF9108950E9489
:1006F00046051F920F920FB60F9211242F933F932E
:100700008F939F93AF93BF93809143019091440146
:10071000A0914501B09146013091420123E0230FA1
:100720002D3720F40196A11DB11D05C026E8230F29
:100730000296A11DB11D2093420180934301909325
:100740004401A0934501B0934601809147019091E7
:100750004801A0914901B0914A010196A11DB11D26
:100760008093470190934801A0934901B0934A01B7
:10077000BF91AF919F918F913F912F910F900FBE9D
:100780000F901F9018951F920F920FB60F92112481
:100790002F933F934F935F936F937F938F939F9389
:1007A000AF93BF93EF93FF938BE491E00E94EC0132
:1007B000FF91EF91BF91AF919F918F917F916F9139
:1007C0005F914F913F912F910F900FBE0F901F900F
:1007D00018951F920F920FB60F9211242F938F939B
:1007E0009F93EF93FF93E0915B01F0915C01808117
:1007F000E0916101F091620182FD12C090818091CF
:1008000064018F5F8F7320916501821751F0E09131
:100810006401F0E0E55BFE4F958F8093640101C0B9
:100820008081FF91EF919F918F912F910F900FBE3B
:100830000F901F901895789484B5826084BD84B51C
:10084000816084BD85B5826085BD85B5816085BDCB
:1008500080916E00816080936E0010928100809183
:10086000810082608093810080918100816080930B
:100870008100809180008160809380008091B10030
:1008800084608093B1008091B00081608093B0005B
:1008900080917A00846080937A0080917A008260EF
:1008A00080937A0080917A00816080937A008091B1
:1008B0007A00806880937A001092C100E0915B0119
:1008C000F0915C0182E08083E0915701F091580142
:1008D0001082E0915901F0915A018FEC80831092BF
:1008E0006301E0915F01F091600186E08083E09117
:1008F0005D01F0915E01808180618083E0915D0106
:10090000F0915E01808188608083E0915D01F091CB
:100910005E01808180688083E0915D01F0915E01DD
:1009200080818F7D808382E090E0909305018093A9
:10093000040187E090E0909303018093020181E23B
:1009400090E090930101809300010E94BA020E94FE
:100950009A020E94A7020E94870284E10E94CF02AD
:100960000E943803811132C08DE20E94CF020E94A2
:10097000380381112BC083E60E94CF020E94380306
:10098000811126C00E94C7024AE06AE070E080E060
:1009900090E00E94F7028CE291E00E94E50242E0C2
:1009A0006DE270E080E090E00E94F7028CE291E05E
:1009B0000E94E50242E063E670E080E090E00E9481
:1009C000F7028CE291E00E94E50202C00E94C70299
:1009D00064E670E080E090E00E943D010E947D02AC
:1009E000B4CFEBE4F1E01382128288EE93E0A0E052
:1009F000B0E084839583A683B7838AE091E09183F6
:100A0000808385EC90E09587848784EC90E09787DD
:100A1000868780EC90E0918B808B81EC90E0938BCB
:100A2000828B82EC90E0958B848B86EC90E0978BA8
:100A3000868B118E128E138E148E0895A1E21A2EBB
:100A4000AA1BBB1BFD010DC0AA1FBB1FEE1FFF1F72
:100A5000A217B307E407F50720F0A21BB30BE40BC2
:100A6000F50B661F771F881F991F1A9469F7609509
:100A70007095809590959B01AC01BD01CF010895C3
:100A8000EE0FFF1F0590F491E02D099481E090E0B6
:0A0A9000F8940C944B05F894FFCF86
:100A9A00030002000100000000000E027701A50118
:100AAA005B02D601B401C801536C617665206E6F92
:100ABA0020726573706F6E7365200A000D0A005309
:100ACA006C61766520726573706F6E646564200A66
:020ADA0000001A
:107E0000112484B714BE81FFF0D085E080938100F7
:107E100082E08093C00088E18093C10086E0809377
:107E2000C20080E18093C4008EE0C9D0259A86E02C
:107E300020E33CEF91E0309385002093840096BBD3
:107E4000B09BFECF1D9AA8958150A9F7CC24DD24C4
:107E500088248394B5E0AB2EA1E19A2EF3E0BF2EE7
:107E6000A2D0813461F49FD0082FAFD0023811F036
:107E7000013811F484E001C083E08DD089C08234E0
:107E800011F484E103C0853419F485E0A6D080C0E4
:107E9000853579F488D0E82EFF2485D0082F10E0AE
:107EA000102F00270E291F29000F111F8ED06801E7
:107EB0006FC0863521F484E090D080E0DECF843638
:107EC00009F040C070D06FD0082F6DD080E0C81688
:107ED00080E7D80618F4F601B7BEE895C0E0D1E017
:107EE00062D089930C17E1F7F0E0CF16F0E7DF06D8
:107EF00018F0F601B7BEE89568D007B600FCFDCFD4
:107F0000A601A0E0B1E02C9130E011968C91119780
:107F100090E0982F8827822B932B1296FA010C0160
:107F200087BEE89511244E5F5F4FF1E0A038BF0790
:107F300051F7F601A7BEE89507B600FCFDCF97BE46
:107F4000E89526C08437B1F42ED02DD0F82E2BD052
:107F50003CD0F601EF2C8F010F5F1F4F84911BD097
:107F6000EA94F801C1F70894C11CD11CFA94CF0C13
:107F7000D11C0EC0853739F428D08EE10CD085E9AC
:107F80000AD08FE07ACF813511F488E018D01DD067
:107F900080E101D065CF982F8091C00085FFFCCF94
:107FA0009093C60008958091C00087FFFCCF809118
:107FB000C00084FD01C0A8958091C6000895E0E648
:107FC000F0E098E1908380830895EDDF803219F02E
:107FD00088E0F5DFFFCF84E1DECF1F93182FE3DFCA
:107FE0001150E9F7F2DF1F91089580E0E8DFEE27F6
:047FF000FF270994CA
:027FFE00040479
:0400000300007E007B
:00000001FF
