:100000000C9462000C948A000C948A000C948A0070
:100010000C948A000C948A000C948A000C948A0038
:100020000C948A000C948A000C948A000C948A0028
:100030000C948A000C948A000C948A000C948A0018
:100040000C944B030C948A000C94BB030C94950302
:100050000C948A000C948A000C948A000C948A00F8
:100060000C948A000C948A000000000025002800EF
:100070002B0000000000240027002A0000000000E0
:1000800023002600290004040404040404040202DA
:100090000202020203030303030301020408102007
:1000A0004080010204081020010204081020000012
:1000B0000008000201000003040700000000000027
:1000C0000000ED0311241FBECFEFD8E0DEBFCDBF8F
:1000D00012E0A0E0B1E0E8EDFBE002C005900D9277
:1000E000A435B107D9F723E0A4E5B2E001C01D9221
:1000F000A336B207E1F710E0C2E6D0E004C02197D2
:10010000FE010E94DF05C136D107C9F70E9426040F
:100110000C94EA050C940000833081F028F48130BF
:1001200099F08230A1F008958730A9F08830B9F0B5
:100130008430D1F4809180008F7D03C08091800055
:100140008F7780938000089584B58F7702C084B53F
:100150008F7D84BD08958091B0008F7703C080911A
:10016000B0008F7D8093B0000895CF93DF93282F48
:1001700030E0F901E255FF4F8491F901E656FF4F57
:10018000D491F901EA57FF4FC491CC2391F081112A
:100190000E948C00EC2FF0E0EE0FFF1FE458FF4FA1
:1001A000A591B491EC91ED2381E090E021F480E001
:1001B00002C080E090E0DF91CF910895CF93DF936C
:1001C00090E0FC01E656FF4F2491FC01EA57FF4FF7
:1001D0008491882361F190E0880F991FFC01EE580B
:1001E000FF4FC591D491FC01E859FF4FA591B491FF
:1001F000611109C09FB7F894888120958223888374
:10020000EC912E230BC0623061F49FB7F894888183
:10021000322F309583238883EC912E2B2C939FBF14
:1002200006C08FB7F894E8812E2B28838FBFDF910B
:10023000CF9108953FB7F8948091BE029091BF028C
:10024000A091C002B091C10226B5A89B05C02F3F66
:1002500019F00196A11DB11D3FBFBA2FA92F982FEC
:100260008827820F911DA11DB11DBC01CD0142E067
:10027000660F771F881F991F4A95D1F70895CF926F
:10028000DF92EF92FF920F931F93CF93DF936C0156
:100290007A018B01C0E0D0E0CE15DF0581F0D801F6
:1002A0006D918D01D601ED91FC910190F081E02DD1
:1002B000C6010995892B11F02196EECF7E01C70169
:1002C000DF91CF911F910F91FF90EF90DF90CF9032
:1002D0000895089580E090E00895FC01538D448DC9
:1002E000252F30E0842F90E0821B930B541710F0E1
:1002F000CF96089501970895FC01918D828D9817EE
:1003000061F0828DDF01A80FB11D5D968C91928DF9
:100310009F5F9F73928F90E008958FEF9FEF0895F6
:10032000FC01918D828D981731F0828DE80FF11DBF
:10033000858D90E008958FEF9FEF0895FC01918DDA
:10034000228D892F90E0805C9F4F821B91098F73D3
:100350009927089582EC92E00E949E0121E0892B6A
:1003600009F420E0822F0895FC01848DDF01A80F9D
:10037000B11DA35ABF4F2C91848D90E001968F73CD
:100380009927848FA689B7892C93A089B1898C91EC
:10039000837080648C93938D848D981306C002883B
:1003A000F389E02D80818F7D80830895EF92FF9205
:1003B0000F931F93CF93DF93EC0181E0888F9B8D88
:1003C0008C8D981305C0E889F989808185FD26C048
:1003D000F62E0B8D10E00F5F1F4F0F731127E02ECD
:1003E0008C8DE8120CC00FB607FCFACFE889F989AA
:1003F000808185FFF5CFCE010E94B401F1CF8B8DB6
:10040000FE01E80FF11DE35AFF4FF0829FB7F89409
:100410000B8FEA89FB89808180620AC09FB7F894BC
:10042000EE89FF896083E889F9898081837080641F
:1004300080839FBF81E090E0DF91CF911F910F916A
:10044000FF90EF900895CF93DF93EC01888D882380
:10045000C9F0EA89FB89808185FD05C0A889B98931
:100460008C9186FD0FC00FB607FCF5CF808185FF0C
:10047000F2CFA889B9898C9185FFEDCFCE010E947A
:10048000B401E7CFDF91CF91089580E090E0892B10
:1004900029F00E94AA0181110C9400000895CF93C5
:1004A000C82F8C2F0E94B500892BD9F38C2F0E9466
:1004B000B500892BD9F7CF910895CF93C82F8C2FF2
:1004C0000E94B500892BD9F78C2F0E94B500892B8B
:1004D000D9F3CF91089560E0809102010C94DE0081
:1004E000CF93DF93C0910001D091010161E08C2F87
:1004F0000E94DE009E013327F901E255FF4F8491EF
:10050000F901E656FF4FD491F901EA57FF4FC49124
:10051000CC2391F081110E948C00EC2FF0E0EE0FC3
:10052000FF1FE859FF4FA591B4919FB7F8948C91A4
:10053000D095D823DC939FBFDF91CF91089560E0E1
:10054000809100010C94DE000E94700280910201F3
:100550000E944F020C949F02009769F0FC010190E9
:100560000020E9F73197AF01481B590BBC0182EC21
:1005700092E00C943F0180E090E008958F929F926A
:10058000AF92BF920F931F93CF93DF93CDB7DEB798
:10059000A1970FB6F894DEBF0FBECDBF19A24230AF
:1005A00008F44AE08E010F5D1F4F842E912CA12C80
:1005B000B12CA50194010E94BD05E62FB901CA0125
:1005C00001501109EA3014F4E05D01C0E95CD80182
:1005D000EC93232B242B252B61F7C8010E94AC023E
:1005E000A1960FB6F894DEBF0FBECDBFDF91CF91BD
:1005F0001F910F91BF90AF909F908F900895CF93D0
:10060000DF93AB01682F4115510529F482EC92E08C
:100610000E94D60105C070E080E090E00E94BE021A
:10062000EC0186E191E00E94AC028C0F9D1FDF91EE
:10063000CF910895CF93DF930E94AC02EC0186E145
:1006400091E00E94AC028C0F9D1FDF91CF91089525
:100650000F931F93CF9308E010E0C0E08091020158
:100660000E945D02809100010E94B500CC0F892B91
:1006700021F0C16089E191E002C08BE191E00E942C
:100680001A030150110951F78C2FCF911F910F912F
:1006900008950E94E5051F920F920FB60F92112444
:1006A0002F933F938F939F93AF93BF938091BA0201
:1006B0009091BB02A091BC02B091BD023091B902F1
:1006C00023E0230F2D3720F40196A11DB11D05C095
:1006D00026E8230F0296A11DB11D2093B902809335
:1006E000BA029093BB02A093BC02B093BD0280916A
:1006F000BE029091BF02A091C002B091C1020196CA
:10070000A11DB11D8093BE029093BF02A093C002B1
:10071000B093C102BF91AF919F918F913F912F9163
:100720000F900FBE0F901F9018951F920F920FB64B
:100730000F9211242F933F934F935F936F937F9367
:100740008F939F93AF93BF93EF93FF9382EC92E0CD
:100750000E94B401FF91EF91BF91AF919F918F9152
:100760007F916F915F914F913F912F910F900FBEAD
:100770000F901F9018951F920F920FB60F92112491
:100780002F938F939F93EF93FF93E091D202F09179
:10079000D3028081E091D802F091D90282FD12C08B
:1007A00090818091DB028F5F8F732091DC02821732
:1007B00051F0E091DB02F0E0EE53FD4F958F809316
:1007C000DB0201C08081FF91EF919F918F912F916A
:1007D0000F900FBE0F901F901895E2ECF2E013827D
:1007E000128288EE93E0A0E0B0E084839583A68334
:1007F000B78388E091E09183808385EC90E09587D2
:10080000848784EC90E09787868780EC90E0918BDA
:10081000808B81EC90E0938B828B82EC90E0958BC7
:10082000848B86EC90E0978B868B118E128E138EC4
:10083000148E8AE090E0A0E0B0E080935F03909394
:100840006003A0936103B09362030895789484B524
:10085000826084BD84B5816084BD85B5826085BDBC
:1008600085B5816085BD80916E00816080936E004A
:10087000109281008091810082608093810080913C
:1008800081008160809381008091800081608093ED
:1008900080008091B10084608093B1008091B000AD
:1008A00081608093B00080917A00846080937A00A8
:1008B00080917A00826080937A0080917A008160D2
:1008C00080937A0080917A00806880937A001092F9
:1008D000C100E091D202F091D30282E08083E091E6
:1008E000CE02F091CF021082E091D002F091D102BD
:1008F0008FEC80831092DA02E091D602F091D70259
:1009000086E08083E091D402F091D50280818061FD
:100910008083E091D402F091D50280818860808349
:10092000E091D402F091D502808180688083E091CB
:10093000D402F091D50280818F7D8083E5E5F2E0DD
:1009400089EB92E02AE121938E179F07E1F7C0918E
:100950005F0382E090E0909301018093000187E0C3
:1009600090E090930301809302010E949F020E94F5
:100970006B02C09354020E946B020E949F02C8EE59
:10098000D3E0F09002018F2D0E94B500892BC9F3AE
:10099000809100010E94B500892B51F48F2D0E9497
:1009A000B500892B09F441C0209731F02197F6CF8B
:1009B000209711F02197E5CFC9E0D0E08CE192E0DB
:1009C0000E94AC02BE0180E090E04AE00E94BE02BC
:1009D00086E191E00E94AC020E941A014B015C0189
:1009E00094E6C92ED12CE12CF12C0E941A01DC01D5
:1009F000CB0188199909AA09BB09883E9340A10532
:100A0000B10598F321E0C21AD108E108F10888EE97
:100A1000880E83E0981EA11CB11CC114D104E1040E
:100A2000F10419F70E944502A6CF88E292E00E94E5
:100A30001A030E942803F82EC82FD0E0D595C79539
:100A400083E492E00E94AC026AE070E08C2F0E9486
:100A5000FF02809102010E944F0280915402C8134C
:100A600083C08DE191E00E941A030E94A4020E94BB
:100A70002803C82F87E391E00E94AC0262E070E097
:100A80008C2F0E94FF02809102010E944F02C43607
:100A900008F061C081E491E00E941A030E94A40260
:100AA000D0E0F0FE30C084E691E00E94AC02CB5A68
:100AB000DD4F62E070E088810E94FF02F880C8E0AC
:100AC000D0E0F7FE03C00E949F0202C00E947002A5
:100AD000FF0CE09002018E2D0E944F02219789F7B2
:100AE0000E949F020E946B020E949F028E2D0E9414
:100AF0005D02809100010E94B500892B09F45ECF50
:100B0000C8E0D0E05BCF0E942803F82E84E791E094
:100B10000E94AC0262E070E08F2D0E94FF02CB5A6F
:100B2000DD4FF882809102010E944F028881F81205
:100B300009C081E891E00E941A030E94A402C0E06B
:100B4000D0E03CCF87EA91E00E941A030E949F0206
:100B5000C7E0D0E033CF80ED91E00E941A030E94FD
:100B60009F02C6E0D0E02ACF85EF91E00E941A03F1
:100B70000E949F02C5E0D0E021CFA1E21A2EAA1B5D
:100B8000BB1BFD010DC0AA1FBB1FEE1FFF1FA2173D
:100B9000B307E407F50720F0A21BB30BE40BF50B3A
:100BA000661F771F881F991F1A9469F760957095C3
:100BB000809590959B01AC01BD01CF010895EE0F8A
:100BC000FF1F0590F491E02D099481E090E0F894E6
:080BD0000C94EA05F894FFCF34
:100BD8000100020000000000D6013F016D01230260
:100BE8009E017C0190010D0A00310030004C61200B
:100BF800646972656363696F6E20657320636F72E1
:100C080072656374612100646174614469723A2099
:100C1800004C6120646972656363696F6E20646566
:100C2800206461746F7320657320636F72726563EB
:100C3800746121006461746120746F207772697433
:100C4800653A2000646174615265616465643A20A4
:100C5800004C6F73206461746F732073652067752F
:100C680061726461726F6E20636F72726563746122
:100C78006D656E746521004C6F73206461746F73C9
:100C8800204E4F20736520677561726461726F6EC4
:100C980020636F7272656374616D656E746521009F
:100CA8004C6120646972656363696F6E20646520B6
:100CB8006461746F7320657320696E636F72726507
:100CC80063746121004C6120646972656363696FB4
:100CD8006E206465206573636C61766F2065732090
:100CE800696E636F72726563746121006572726FF9
:100CF80072206675653A200041207472616E7361D6
:100D08006374696F6E2068617320737461727465AF
:100D1800642100736C617665416464526561646541
:040D2800643A200009
:107E0000112484B714BE81FFF0D085E080938100F7
:107E100082E08093C00088E18093C10086E0809377
:107E2000C20080E18093C4008EE0C9D0259A86E02C
:107E300020E33CEF91E0309385002093840096BBD3
:107E4000B09BFECF1D9AA8958150A9F7CC24DD24C4
:107E500088248394B5E0AB2EA1E19A2EF3E0BF2EE7
:107E6000A2D0813461F49FD0082FAFD0023811F036
:107E7000013811F484E001C083E08DD089C08234E0
:107E800011F484E103C0853419F485E0A6D080C0E4
:107E9000853579F488D0E82EFF2485D0082F10E0AE
:107EA000102F00270E291F29000F111F8ED06801E7
:107EB0006FC0863521F484E090D080E0DECF843638
:107EC00009F040C070D06FD0082F6DD080E0C81688
:107ED00080E7D80618F4F601B7BEE895C0E0D1E017
:107EE00062D089930C17E1F7F0E0CF16F0E7DF06D8
:107EF00018F0F601B7BEE89568D007B600FCFDCFD4
:107F0000A601A0E0B1E02C9130E011968C91119780
:107F100090E0982F8827822B932B1296FA010C0160
:107F200087BEE89511244E5F5F4FF1E0A038BF0790
:107F300051F7F601A7BEE89507B600FCFDCF97BE46
:107F4000E89526C08437B1F42ED02DD0F82E2BD052
:107F50003CD0F601EF2C8F010F5F1F4F84911BD097
:107F6000EA94F801C1F70894C11CD11CFA94CF0C13
:107F7000D11C0EC0853739F428D08EE10CD085E9AC
:107F80000AD08FE07ACF813511F488E018D01DD067
:107F900080E101D065CF982F8091C00085FFFCCF94
:107FA0009093C60008958091C00087FFFCCF809118
:107FB000C00084FD01C0A8958091C6000895E0E648
:107FC000F0E098E1908380830895EDDF803219F02E
:107FD00088E0F5DFFFCF84E1DECF1F93182FE3DFCA
:107FE0001150E9F7F2DF1F91089580E0E8DFEE27F6
:047FF000FF270994CA
:027FFE00040479
:0400000300007E007B
:00000001FF
